{
  "_format": "hh-sol-artifact-1",
  "contractName": "TwitterContract",
  "sourceName": "contracts/TwitterContract.sol",
  "abi": [
    {
      "anonymous": false,
      "inputs": [
        {
          "indexed": false,
          "internalType": "address",
          "name": "recipient",
          "type": "address"
        },
        {
          "indexed": false,
          "internalType": "uint256",
          "name": "tweetId",
          "type": "uint256"
        }
      ],
      "name": "AddTweet",
      "type": "event"
    },
    {
      "anonymous": false,
      "inputs": [
        {
          "indexed": false,
          "internalType": "uint256",
          "name": "tweetid",
          "type": "uint256"
        },
        {
          "indexed": false,
          "internalType": "bool",
          "name": "isdeleted",
          "type": "bool"
        }
      ],
      "name": "DeleteTweet",
      "type": "event"
    },
    {
      "inputs": [
        {
          "internalType": "string",
          "name": "tweetText",
          "type": "string"
        },
        {
          "internalType": "bool",
          "name": "isdeleted",
          "type": "bool"
        }
      ],
      "name": "addTweet",
      "outputs": [],
      "stateMutability": "nonpayable",
      "type": "function"
    },
    {
      "inputs": [
        {
          "internalType": "uint256",
          "name": "tweetid",
          "type": "uint256"
        },
        {
          "internalType": "bool",
          "name": "isdeleted",
          "type": "bool"
        }
      ],
      "name": "deletetweet",
      "outputs": [],
      "stateMutability": "nonpayable",
      "type": "function"
    },
    {
      "inputs": [],
      "name": "getalltweets",
      "outputs": [
        {
          "components": [
            {
              "internalType": "uint256",
              "name": "id",
              "type": "uint256"
            },
            {
              "internalType": "address",
              "name": "username",
              "type": "address"
            },
            {
              "internalType": "string",
              "name": "tweet_text",
              "type": "string"
            },
            {
              "internalType": "bool",
              "name": "isdeleted",
              "type": "bool"
            }
          ],
          "internalType": "struct TwitterContract.Tweet[]",
          "name": "",
          "type": "tuple[]"
        }
      ],
      "stateMutability": "view",
      "type": "function"
    },
    {
      "inputs": [],
      "name": "getmytweets",
      "outputs": [
        {
          "components": [
            {
              "internalType": "uint256",
              "name": "id",
              "type": "uint256"
            },
            {
              "internalType": "address",
              "name": "username",
              "type": "address"
            },
            {
              "internalType": "string",
              "name": "tweet_text",
              "type": "string"
            },
            {
              "internalType": "bool",
              "name": "isdeleted",
              "type": "bool"
            }
          ],
          "internalType": "struct TwitterContract.Tweet[]",
          "name": "",
          "type": "tuple[]"
        }
      ],
      "stateMutability": "view",
      "type": "function"
    }
  ],
  "bytecode": "0x608060405234801561001057600080fd5b506112fa806100206000396000f3fe608060405234801561001057600080fd5b506004361061004c5760003560e01c8063979692951461005157806398cc7bab1461006f578063decf00101461008b578063e580339f146100a9575b600080fd5b6100596100c5565b6040516100669190610be5565b60405180910390f35b61008960048036038101906100849190610c73565b610393565b005b6100936104bb565b6040516100a09190610be5565b60405180910390f35b6100c360048036038101906100be9190610de8565b6107f5565b005b60606000808054905067ffffffffffffffff8111156100e7576100e6610cbd565b5b60405190808252806020026020018201604052801561012057816020015b61010d61097b565b8152602001906001900390816101055790505b5090506000805b6000805490508110156102df576000818154811061014857610147610e44565b5b906000526020600020906004020160030160009054906101000a900460ff166102d2576000818154811061017f5761017e610e44565b5b9060005260206000209060040201604051806080016040529081600082015481526020016001820160009054906101000a900473ffffffffffffffffffffffffffffffffffffffff1673ffffffffffffffffffffffffffffffffffffffff1673ffffffffffffffffffffffffffffffffffffffff16815260200160028201805461020890610ea2565b80601f016020809104026020016040519081016040528092919081815260200182805461023490610ea2565b80156102815780601f1061025657610100808354040283529160200191610281565b820191906000526020600020905b81548152906001019060200180831161026457829003601f168201915b505050505081526020016003820160009054906101000a900460ff1615151515815250508383815181106102b8576102b7610e44565b5b602002602001018190525081806102ce90610f02565b9250505b8080600101915050610127565b5060008167ffffffffffffffff8111156102fc576102fb610cbd565b5b60405190808252806020026020018201604052801561033557816020015b61032261097b565b81526020019060019003908161031a5790505b50905060005b828110156103895783818151811061035657610355610e44565b5b602002602001015182828151811061037157610370610e44565b5b6020026020010181905250808060010191505061033b565b5080935050505090565b60008054905082106103da576040517f08c379a00000000000000000000000000000000000000000000000000000000081526004016103d190610fa7565b60405180910390fd5b3373ffffffffffffffffffffffffffffffffffffffff166001600084815260200190815260200160002060009054906101000a900473ffffffffffffffffffffffffffffffffffffffff1673ffffffffffffffffffffffffffffffffffffffff16036104b757806000838154811061045557610454610e44565b5b906000526020600020906004020160030160006101000a81548160ff0219169083151502179055507f2430f837dd2fb40e08c064be9db3d0cf2a7a21f8fe716a2a41787dafc66a7e2a82826040516104ae929190610fe5565b60405180910390a15b5050565b60606000808054905067ffffffffffffffff8111156104dd576104dc610cbd565b5b60405190808252806020026020018201604052801561051657816020015b61050361097b565b8152602001906001900390816104fb5790505b5090506000805b600080549050811015610741573373ffffffffffffffffffffffffffffffffffffffff166001600083815260200190815260200160002060009054906101000a900473ffffffffffffffffffffffffffffffffffffffff1673ffffffffffffffffffffffffffffffffffffffff161480156105c85750600081815481106105a7576105a6610e44565b5b906000526020600020906004020160030160009054906101000a900460ff16155b1561073457600081815481106105e1576105e0610e44565b5b9060005260206000209060040201604051806080016040529081600082015481526020016001820160009054906101000a900473ffffffffffffffffffffffffffffffffffffffff1673ffffffffffffffffffffffffffffffffffffffff1673ffffffffffffffffffffffffffffffffffffffff16815260200160028201805461066a90610ea2565b80601f016020809104026020016040519081016040528092919081815260200182805461069690610ea2565b80156106e35780601f106106b8576101008083540402835291602001916106e3565b820191906000526020600020905b8154815290600101906020018083116106c657829003601f168201915b505050505081526020016003820160009054906101000a900460ff16151515158152505083838151811061071a57610719610e44565b5b6020026020010181905250818061073090610f02565b9250505b808060010191505061051d565b5060008167ffffffffffffffff81111561075e5761075d610cbd565b5b60405190808252806020026020018201604052801561079757816020015b61078461097b565b81526020019060019003908161077c5790505b50905060005b828110156107eb578381815181106107b8576107b7610e44565b5b60200260200101518282815181106107d3576107d2610e44565b5b6020026020010181905250808060010191505061079d565b5080935050505090565b600080805490509050600060405180608001604052808381526020013373ffffffffffffffffffffffffffffffffffffffff16815260200185815260200184151581525090806001815401808255809150506001900390600052602060002090600402016000909190919091506000820151816000015560208201518160010160006101000a81548173ffffffffffffffffffffffffffffffffffffffff021916908373ffffffffffffffffffffffffffffffffffffffff16021790555060408201518160020190816108c891906111ba565b5060608201518160030160006101000a81548160ff0219169083151502179055505050336001600083815260200190815260200160002060006101000a81548173ffffffffffffffffffffffffffffffffffffffff021916908373ffffffffffffffffffffffffffffffffffffffff1602179055507f8b2db9b424f26463510ef5b02c16f2465836b52081b51d2112ec76102053bdea338260405161096e92919061129b565b60405180910390a1505050565b604051806080016040528060008152602001600073ffffffffffffffffffffffffffffffffffffffff168152602001606081526020016000151581525090565b600081519050919050565b600082825260208201905092915050565b6000819050602082019050919050565b6000819050919050565b6109fa816109e7565b82525050565b600073ffffffffffffffffffffffffffffffffffffffff82169050919050565b6000610a2b82610a00565b9050919050565b610a3b81610a20565b82525050565b600081519050919050565b600082825260208201905092915050565b60005b83811015610a7b578082015181840152602081019050610a60565b60008484015250505050565b6000601f19601f8301169050919050565b6000610aa382610a41565b610aad8185610a4c565b9350610abd818560208601610a5d565b610ac681610a87565b840191505092915050565b60008115159050919050565b610ae681610ad1565b82525050565b6000608083016000830151610b0460008601826109f1565b506020830151610b176020860182610a32565b5060408301518482036040860152610b2f8282610a98565b9150506060830151610b446060860182610add565b508091505092915050565b6000610b5b8383610aec565b905092915050565b6000602082019050919050565b6000610b7b826109bb565b610b8581856109c6565b935083602082028501610b97856109d7565b8060005b85811015610bd35784840389528151610bb48582610b4f565b9450610bbf83610b63565b925060208a01995050600181019050610b9b565b50829750879550505050505092915050565b60006020820190508181036000830152610bff8184610b70565b905092915050565b6000604051905090565b600080fd5b600080fd5b610c24816109e7565b8114610c2f57600080fd5b50565b600081359050610c4181610c1b565b92915050565b610c5081610ad1565b8114610c5b57600080fd5b50565b600081359050610c6d81610c47565b92915050565b60008060408385031215610c8a57610c89610c11565b5b6000610c9885828601610c32565b9250506020610ca985828601610c5e565b9150509250929050565b600080fd5b600080fd5b7f4e487b7100000000000000000000000000000000000000000000000000000000600052604160045260246000fd5b610cf582610a87565b810181811067ffffffffffffffff82111715610d1457610d13610cbd565b5b80604052505050565b6000610d27610c07565b9050610d338282610cec565b919050565b600067ffffffffffffffff821115610d5357610d52610cbd565b5b610d5c82610a87565b9050602081019050919050565b82818337600083830152505050565b6000610d8b610d8684610d38565b610d1d565b905082815260208101848484011115610da757610da6610cb8565b5b610db2848285610d69565b509392505050565b600082601f830112610dcf57610dce610cb3565b5b8135610ddf848260208601610d78565b91505092915050565b60008060408385031215610dff57610dfe610c11565b5b600083013567ffffffffffffffff811115610e1d57610e1c610c16565b5b610e2985828601610dba565b9250506020610e3a85828601610c5e565b9150509250929050565b7f4e487b7100000000000000000000000000000000000000000000000000000000600052603260045260246000fd5b7f4e487b7100000000000000000000000000000000000000000000000000000000600052602260045260246000fd5b60006002820490506001821680610eba57607f821691505b602082108103610ecd57610ecc610e73565b5b50919050565b7f4e487b7100000000000000000000000000000000000000000000000000000000600052601160045260246000fd5b6000610f0d826109e7565b91507fffffffffffffffffffffffffffffffffffffffffffffffffffffffffffffffff8203610f3f57610f3e610ed3565b5b600182019050919050565b600082825260208201905092915050565b7f496e76616c696420747765657420494400000000000000000000000000000000600082015250565b6000610f91601083610f4a565b9150610f9c82610f5b565b602082019050919050565b60006020820190508181036000830152610fc081610f84565b9050919050565b610fd0816109e7565b82525050565b610fdf81610ad1565b82525050565b6000604082019050610ffa6000830185610fc7565b6110076020830184610fd6565b9392505050565b60008190508160005260206000209050919050565b60006020601f8301049050919050565b600082821b905092915050565b6000600883026110707fffffffffffffffffffffffffffffffffffffffffffffffffffffffffffffffff82611033565b61107a8683611033565b95508019841693508086168417925050509392505050565b6000819050919050565b60006110b76110b26110ad846109e7565b611092565b6109e7565b9050919050565b6000819050919050565b6110d18361109c565b6110e56110dd826110be565b848454611040565b825550505050565b600090565b6110fa6110ed565b6111058184846110c8565b505050565b5b818110156111295761111e6000826110f2565b60018101905061110b565b5050565b601f82111561116e5761113f8161100e565b61114884611023565b81016020851015611157578190505b61116b61116385611023565b83018261110a565b50505b505050565b600082821c905092915050565b600061119160001984600802611173565b1980831691505092915050565b60006111aa8383611180565b9150826002028217905092915050565b6111c382610a41565b67ffffffffffffffff8111156111dc576111db610cbd565b5b6111e68254610ea2565b6111f182828561112d565b600060209050601f8311600181146112245760008415611212578287015190505b61121c858261119e565b865550611284565b601f1984166112328661100e565b60005b8281101561125a57848901518255600182019150602085019450602081019050611235565b868310156112775784890151611273601f891682611180565b8355505b6001600288020188555050505b505050505050565b61129581610a20565b82525050565b60006040820190506112b0600083018561128c565b6112bd6020830184610fc7565b939250505056fea2646970667358221220e4ab4805b8f69a7aeecf030a81a7aea2e37c78b16fe220b67f86c536f877ef1f64736f6c63430008180033",
  "linkReferences": {},
  "deployedLinkReferences": {}
}